:020000040000fa
:080000000002040000000000f2
:020000040000fa
:040008001a030000d7
:020000040000fa
:04000c001a030000d3
:020000040000fa
:040010001a030000cf
:020000040000fa
:040014001a030000cb
:020000040000fa
:040018001a030000c7
:020000040000fa
:04001c001a030000c3
:020000040000fa
:040020001a030000bf
:020000040000fa
:040024001a030000bb
:020000040000fa
:040028001a030000b7
:020000040000fa
:04002c00e8020000e6
:020000040000fa
:040030001a030000af
:020000040000fa
:04003400cc020000fa
:020000040000fa
:040038001a030000a7
:020000040000fa
:04003c001a030000a3
:020000040000fa
:040040001a0300009f
:020000040000fa
:04004400d4020000e2
:020000040000fa
:04004800de020000d4
:020000040000fa
:04004c001a03000093
:020000040000fa
:040050001a0300008f
:020000040000fa
:040054000a0300009b
:020000040000fa
:04005800120300008f
:020000040000fa
:04005c001a03000083
:020000040000fa
:040060001a0300007f
:020000040000fa
:040064001a0300007b
:020000040000fa
:040068001a03000077
:020000040000fa
:04006c001a03000073
:020000040000fa
:040070001a0300006f
:020000040000fa
:040074001a0300006b
:020000040000fa
:040078001a03000067
:020000040000fa
:04007c001a03000063
:020000040000fa
:040080001a0300005f
:020000040000fa
:040084001a0300005b
:020000040000fa
:040088001a03000057
:020000040000fa
:04008c001a03000053
:020000040000fa
:040090001a0300004f
:020000040000fa
:040094001a0300004b
:020000040000fa
:040098001a03000047
:020000040000fa
:04009c001a03000043
:020000040000fa
:0400a0001a0300003f
:020000040000fa
:0400a4001a0300003b
:020000040000fa
:0400a8001a03000037
:020000040000fa
:0400ac001a03000033
:020000040000fa
:0400b0001a0300002f
:020000040000fa
:0400b4001a0300002b
:020000040000fa
:0400b8001a03000027
:020000040000fa
:0400bc001a03000023
:020000040000fa
:0400c0001a0300001f
:020000040000fa
:0400c4001a0300001b
:020000040000fa
:0400c8001a03000017
:020000040000fa
:0400cc001a03000013
:020000040000fa
:0400d0001a0300000f
:020000040000fa
:0400d4001a0300000b
:020000040000fa
:0400d8001a03000007
:020000040000fa
:0400dc001a03000003
:020000040000fa
:0400e0001a030000ff
:020000040000fa
:0400e4001a030000fb
:020000040000fa
:0400e8001a030000f7
:020000040000fa
:0400ec001a030000f3
:020000040000fa
:0400f0001a030000ef
:020000040000fa
:0400f4001a030000eb
:020000040000fa
:0400f8001a030000e7
:020000040000fa
:0400fc001a030000e3
:020000040000fa
:040100001a030000de
:020000040000fa
:040104001a030000da
:020000040000fa
:040108001a030000d6
:020000040000fa
:04010c001a030000d2
:020000040000fa
:040110001a030000ce
:020000040000fa
:040114001a030000ca
:020000040000fa
:040118001a030000c6
:020000040000fa
:04011c001a030000c2
:020000040000fa
:040120001a030000be
:020000040000fa
:040124001a030000ba
:020000040000fa
:040128001a030000b6
:020000040000fa
:04012c001a030000b2
:020000040000fa
:040130001a030000ae
:020000040000fa
:040134001a030000aa
:020000040000fa
:040138001a030000a6
:020000040000fa
:04013c001a030000a2
:020000040000fa
:040140001a0300009e
:020000040000fa
:040144001a0300009a
:020000040000fa
:040148001a03000096
:020000040000fa
:04014c001a03000092
:020000040000fa
:040150001a0300008e
:020000040000fa
:040154001a0300008a
:020000040000fa
:040158001a03000086
:020000040000fa
:04015c001a03000082
:020000040000fa
:040160001a0300007e
:020000040000fa
:040164001a0300007a
:020000040000fa
:040208001a030000d5
:020000040000fa
:04020c001a030000d1
:020000040000fa
:040210001a030000cd
:020000040000fa
:040214001a030000c9
:020000040000fa
:040218001a030000c5
:020000040000fa
:04021c001a030000c1
:020000040000fa
:040220001a030000bd
:020000040000fa
:040224001a030000b9
:020000040000fa
:040228001a030000b5
:020000040000fa
:04022c00e8020000e4
:020000040000fa
:040230001a030000ad
:020000040000fa
:04023400cc020000f8
:020000040000fa
:040238001a030000a5
:020000040000fa
:04023c001a030000a1
:020000040000fa
:040240001a0300009d
:020000040000fa
:04024400d4020000e0
:020000040000fa
:04024800de020000d2
:020000040000fa
:04024c001a03000091
:020000040000fa
:040250001a0300008d
:020000040000fa
:040254000a03000099
:020000040000fa
:04025800120300008d
:020000040000fa
:04025c001a03000081
:020000040000fa
:040260001a0300007d
:020000040000fa
:040264001a03000079
:020000040000fa
:040268001a03000075
:020000040000fa
:04026c001a03000071
:020000040000fa
:040270001a0300006d
:020000040000fa
:040274001a03000069
:020000040000fa
:040278001a03000065
:020000040000fa
:04027c001a03000061
:020000040000fa
:040280001a0300005d
:020000040000fa
:040284001a03000059
:020000040000fa
:040288001a03000055
:020000040000fa
:04028c001a03000051
:020000040000fa
:040290001a0300004d
:020000040000fa
:040294001a03000049
:020000040000fa
:040298001a03000045
:020000040000fa
:04029c001a03000041
:020000040000fa
:0402a0001a0300003d
:020000040000fa
:0402a4001a03000039
:020000040000fa
:0402a8001a03000035
:020000040000fa
:0402ac001a03000031
:020000040000fa
:0402b0001a0300002d
:020000040000fa
:0402b4001a03000029
:020000040000fa
:0402b8001a03000025
:020000040000fa
:0402bc001a03000021
:020000040000fa
:0402c0001a0300001d
:020000040000fa
:0402c4001a03000019
:020000040000fa
:0402c8001a03000015
:020000040000fa
:0402cc001a03000011
:020000040000fa
:0402d0001a0300000d
:020000040000fa
:0402d4001a03000009
:020000040000fa
:0402d8001a03000005
:020000040000fa
:0402dc001a03000001
:020000040000fa
:0402e0001a030000fd
:020000040000fa
:0402e4001a030000f9
:020000040000fa
:0402e8001a030000f5
:020000040000fa
:0402ec001a030000f1
:020000040000fa
:0402f0001a030000ed
:020000040000fa
:0402f4001a030000e9
:020000040000fa
:0402f8001a030000e5
:020000040000fa
:0402fc001a030000e1
:020000040000fa
:040300001a030000dc
:020000040000fa
:040304001a030000d8
:020000040000fa
:040308001a030000d4
:020000040000fa
:04030c001a030000d0
:020000040000fa
:040310001a030000cc
:020000040000fa
:040314001a030000c8
:020000040000fa
:040318001a030000c4
:020000040000fa
:04031c001a030000c0
:020000040000fa
:040320001a030000bc
:020000040000fa
:040324001a030000b8
:020000040000fa
:040328001a030000b4
:020000040000fa
:04032c001a030000b0
:020000040000fa
:040330001a030000ac
:020000040000fa
:040334001a030000a8
:020000040000fa
:040338001a030000a4
:020000040000fa
:04033c001a030000a0
:020000040000fa
:040340001a0300009c
:020000040000fa
:040344001a03000098
:020000040000fa
:040348001a03000094
:020000040000fa
:04034c001a03000090
:020000040000fa
:040350001a0300008c
:020000040000fa
:040354001a03000088
:020000040000fa
:040358001a03000084
:020000040000fa
:04035c001a03000080
:020000040000fa
:040360001a0300007c
:020000040000fa
:040364001a03000078
:020000040000fa
:10040000af9120000e7f24000e0188000000000044
:10041000000020000000e000020032000001200087
:100420002002880014000700840007000000e0009c
:1004300003003a008046210001002000020037003e
:100440000000200001002000810f70000100320038
:1004500014000700000020000000e000020032004d
:1004600000000200000000002a100200000000004e
:100470000040da000000fe004440a900c00820004f
:100480000000e0000300320000002000a00188000e
:100490004440a800000006008a1f78008b1f7800e7
:1004a0000000060091018800800478000000eb0045
:1004b0001a003700e284440032a0b4009905ba0063
:1004c000e284440032a0b4009906ba00e2844400f9
:1004d00032a0b4000006eb00476fde00fd07b2005b
:1004e000636ce10003003a00ebff07000000eb0043
:1004f0000a003700606ce10004003a00005deb0088
:100500008b05e900fdff3e00040037006168e10053
:10051000010032000086eb000b00070019c7ba008b
:100520001905ba000e04e00003003a000a00e000da
:10053000e0ff3a0000000600fe07b2009e018800be
:100540008a047800f5ff3700395dba008b05e900b1
:100550000c003200295dba008b05e900080032006a
:100560000c00e00003003a00e284440032a0b40032
:10057000f5ff370019ddba008b05e900faff3a00f4
:100580008904e800e184440032a0b40000000600c1
:100590004e050400000000000000fa008460a9007d
:1005a0000080fa00004006000000fa0084e0a90084
:1005b0000621ef000080fa00004006000000fa006b
:1005c0008500a9000a21ef000080fa000040060023
:1005d0003600f800809fbe00829fbe00849fbe0050
:1005e000869fbe000000fa00160807003040880011
:1005f000414088008420a9000080fa004f03be001b
:100600004f02be004f01be004f00be003600f90091
:10061000004006000000fa008560a9000080fa0092
:10062000004006000000fa008580a9000080fa0062
:10063000004006000040da000000fe000000050057
:10064000889fbe008a9fbe008c1f7800680007004c
:100650006f00330003866c006450e1002e0032000e
:100660006420e100330032006150e1002f003200cd
:100670006120e1003100320085855500eb07b000b4
:100680000900200008042000050037000804440089
:1006900089844c000a0031000603430087834b0025
:1006a0000001530081815b00f8ff33000203be00ac
:1006b0000800a0000804440089844c00f6ff3900bb
:1006c000c639dd00830173000100320013002000f1
:1006d0008904d1000884d3000998a30005003200e2
:1006e0000800a7000300a0008904d1000884d300fb
:1006f0008b05e8008904d1000884d3000001eb00d9
:100700000281d2001400070001f0a1000cf0a70044
:1007100001f0a000470037006420e10049003200ea
:100720000801be000200be00f7ff37006120e100b3
:10073000440032006000b800f3ff370000002000e2
:1007400001f82700f0ff3700f4ff2f007400370096
:100750006011b8008d0037008100200061805500d5
:100760000b003d000b00200061fe2f000100e100a6
:100770001d00340082817100610164008904d10090
:100780000884d3000000e800faff3a00710020005e
:100790006100640003007000020060000900320084
:1007a00061044400e0844c000988a5000500320083
:1007b0008b05e8006808e10002003a008904d100d6
:1007c0000884d300f20f20000258e10005003d002c
:1007d000c75ddd00f907b200898075000800780068
:1007e000000006000bf827008b00780000000500d1
:1007f0000004be00940007000003be000405be0014
:100800000200be0090000700844f75000000060043
:100810000200be006450e100050036006420e100e3
:10082000020036000968a30001003a000800be007b
:100830000160a0004f0678004f05be004f04be00c7
:1008400000000600f0ff2f00f1ff2700f9ff37003e
:10085000889fbe008a9fbe008c1f7800e4ff0700bf
:10086000ebff330003866c006450e100240032008b
:100870006420e100270032006150e10022003200d4
:100880006120e100210032008b854200eb07b100be
:100890000134b800003ab8000804420089844a00d4
:1008a000013ab8000030b8008880400009014a00d1
:1008b000040033000000400081804800020149002c
:1008c0008b05e900c909dd008301700001003200d9
:1008d00013002000c814de004814dd004709de00c4
:1008e0001200b200c808de00088470009aff0700fa
:1008f00001f0a1000cf0a70001f0a000cdff37002f
:100900006120e100cfff32000801be000200be00fe
:10091000f7ff37006150e100fcff3a00c9ff3700e4
:10092000889fbe008a9fbe00841f7800b0ff07002a
:100930004f00780011003300f0ff2f00838f6c0010
:1009400006003b00040565000a00a7000800370008
:1009500009f0a6001000200008003700820f5400a4
:10096000838f5c00030039001000200001003e006e
:100970000000200009f0a7000000ea004f05be00bb
:100980004f04be000000e00000000600889fbe008b
:100990008a9fbe0000827000040271000482710010
:1009a000260032000004be000200be006011b80044
:1009b0006b092000950220000182cf000a00390057
:1009c0000541b1000082cf00070039000541b100a8
:1009d0000982cf00040039000541b1000882cf0030
:1009e000010039000541b1000542520012003200f9
:1009f0000a003b0082817100610164008100d10026
:100a00000080d3008984d3000884d3008b05e800dc
:100a10000442e800f7ff3a000700370008044400ea
:100a200089844c0000004800818048008b05e90063
:100a30000442e900f9ff3a0047ff07004f05be00f6
:100a40004f04be0000000600c70ade00f107b20036
:100a5000f50fb20008003200e1cf42000200320080
:100a60000170a00024000500810f70000100320019
:100a70000408050044000500810f700002003a00e0
:100a8000140005008502e9000000400081c0480014
:100a9000fcff3b000170a00024000500881f7800c7
:100aa0000204780008017800c40007000800400034
:100ab0004f047800000006000000fa00881f78004c
:100ac00000047800ea8157003fb997008800780059
:100ad000e0542000070007000000e000020035009d
:100ae0008040eb00017478004f0478000080fa0029
:100af000000006006200fa00889fbe008a1f78008e
:100b000000057800810478000204780083007800f2
:100b100080f92f000f004000770107009a979f008f
:100b2000a9979f000000eb00b09f9f001885fb0075
:100b30008a04fb000a05ea004f55de00500220003f
:100b4000808f54000d003200e10f55000b003a0079
:100b50000a017800880078002f9097009f919700f5
:100b600003000100a0979f000000e0008e0032000b
:100b70003f9897000000e800b09f9f000a044400df
:100b800050022000808f5400040032000900e00071
:100b9000e6ff3a003f989700840037000000eb0022
:100ba000909f9f00809f9f00f0979f00e0979f007d
:100bb000d0979f00c0979f00070037004191200009
:100bc000010050000000400081902000610078008a
:100bd000df98970001007000d09f9f008804780084
:100be00009047800384578008a00fb004091200015
:100bf000790007000000e000f0ff3a00a1c2b30056
:100c0000814f55000e003a00cf8897000180e9001f
:100c1000c08f9f0010007800c09f9f000000e00080
:100c200005003d000000ea00c09f9f005f9897000c
:100c30000020a000d09f9f000904e8000f003700ab
:100c4000c09f9f000000eb0005003700f2ff270067
:100c5000820f5000020032006a01b9000280400099
:100c60000904780088047800b900fb000103b10092
:100c7000e98f5000f5ff3600c09f9f00e0c2b3002f
:100c8000984f1000020032000080eb00190037007e
:100c9000a0c2b300d84f100007003a00cf889700d9
:100ca0000180e900c08f9f0010007800a09f9f0086
:100cb0000804e800100037000000eb00a09f9f0030
:100cc0008800780005003700f3ff2700830f5000ed
:100cd000020032006a02b9000400410001047800f9
:100ce000880078003101fb000203b100e90f5100d8
:100cf000f5ff3600a09f9f00984478008900fb0014
:100d000000902000340007000000e00002003200e4
:100d10000804e800010037008044eb00c97f9f0011
:100d200080c6b30080cf540004003a0098cf14006e
:100d30000a003a006640500006003700c0c6b30003
:100d400080cf540005003a0098cf140003003a0009
:100d500065404000c07f9f000804e8001801fb00c8
:100d6000e3fb2f008f81410081f92f008f8040002d
:100d7000a0f92f000f004000e10007000000e00094
:100d800009003a00e1fb2f008f804000a0f92f00fe
:100d90000f0040001c0007000000e00002003500ca
:100da0000804e80061ff37000080eb004f05780081
:100db0004f04be000080fa000000060080017800a9
:100dc00002003700b15978000201e9000200e0009a
:100dd000fcff3a0000000600020037000304e000b8
:100de000060032000001780002007800b04178006f
:100df00081cf5100f9ff3a00010037000001eb00fc
:100e000002007800000006000400fa00889fbe007f
:100e10008a9fbe008c1f78000004780001067800cd
:100e2000f80d90007800900080855500080890002b
:100e3000808555001808900080855500280890008e
:100e4000808555003808900080855500480890003e
:100e5000808555000002220090bf9f000003230000
:100e6000a0bf9f00081090000028a30015003a00c2
:100e70000b00e000130034000b0578008a047800b2
:100e8000e20f55000100360029002000c801900043
:100e900009017800ee80570058009000030001001f
:100ea000500498000000e0008c00320068089000b8
:100eb00009004000600c9800090555004240a90057
:100ec000eeff3c00780190000200e0000c003400ce
:100ed000c80190008c0078005800900003000100c9
:100ee000500498008080eb000000e0007c0032009d
:100ef000e80890007800900000804000600c9800a6
:100f0000880c90000900e000110034000905780009
:100f1000e28f5400010036002a002000c801900032
:100f20000a017800ec80570058009000030001008f
:100f3000500498000000e00068003200680890004b
:100f40000a004000600c98008a845400edff3700ce
:100f5000180990000200e0000c003400c801900065
:100f6000e800900058009000030001005004980031
:100f70008080eb000000e00059003200e80890009b
:100f80001808900000804000600c9800a80c9000a9
:100f90000900e0001100340009057800e28f5400d8
:100fa000010036002a002000c80190000a017800e4
:100fb000ec80570058009000030001005004980096
:100fc0000000e00045003200680890000a00400080
:100fd000600c98008a845400edff370038099000b7
:100fe0000200e0000e003400e800900018089000b5
:100ff00080804000c801900058009000030001006c
:10100000500498008080eb000000e00034003200c3
:10101000e80890003808900000804000600c9800bc
:10102000c80c90000900e0001100340009057800a8
:10103000e28f5400010036002a002000c801900011
:101040000a017800ec80570058009000030001006e
:10105000500498000000e000200032006808900072
:101060000a004000600c98008a845400edff3700ad
:10107000081090008000eb000028a3001800320048
:101080000b00e000160034008b047800090578009e
:10109000e28f5400010036002a002000c8019000b1
:1010a0000a017800ee80570058009000030001000c
:1010b000500498000000e00008003200680890002a
:1010c0000a004000600c98008a8454004240a90045
:1010d000eeff3c008000eb00010037008080eb0059
:1010e000010078004f0678004f05be004f04be0097
:1010f0000080fa00000006000108780000000600e9
:10110000889fbe008a1f78000004780001007800e4
:1011100082407800e2c6b30082cf5000c0003200a7
:1011200015003c006b41510082cf5000240032007a
:101130000a003c007041510082cf5000f90032009b
:101140006541410082cf50006800320050c2b300b8
:1011500080cf50000a013a000601370042c6b300b2
:1011600082cf50001b0032006541410082cf500009
:1011700003013a001700370032c7b30082cf500096
:10118000e800320007003c006441510082cf50006b
:10119000560032000241e80082cf5000f8003a00c9
:1011a000d200370052c7b30082cf50004f00320048
:1011b0006341410082cf5000f1003a004b003700fc
:1011c0009080e90001087800780090009140780054
:1011d000e900370028619000c4c6b300844f510075
:1011e00007003a00100278006401520002087800fb
:1011f0001202be004fabde008603780011003700fc
:1012000014c7b300844f510003003200a4c6b300da
:10121000844f510006003a00100278006801520025
:10122000020878003202be002203be00050037002b
:101230001081e9000208780012027800cfa2de00d7
:10124000612bb900049cbe000694be00286090008b
:1012500082c6b300824f50000d00320022c6b30098
:10126000824f500004003a000402fb00cfa2de00cf
:10127000612bb9000800370042c7b300824f50000d
:101280000300320066414100824f500004003a00e2
:10129000cfa2de00612bb900049cbe000694be0004
:1012a0003802be002803be0078009000d2c2b3000e
:1012b000e00f5200e08f5a00e00f5b00e08f5b0010
:1012c00008003500081190000218a3000200320047
:1012d000b2c2b300030037000208a3004c00320082
:1012e00002c2b30082717800470037002861900085
:1012f000c4c6b300844f510006003a0010027800c3
:1013000064015200020878001202be006033b80087
:101310001100370014c7b300844f5100030032009e
:10132000a4c6b300844f510006003a0010027800b2
:1013300068015200020878003202be002203be009b
:10134000050037001081e9000208780012027800d9
:101350008002eb006033b800049cbe000694be001f
:101360002860900082c6b300824f50000d0032000a
:1013700022c6b300824f500004003a000482fb00f2
:101380008002eb006033b8000800370042c7b300aa
:10139000824f50000300320066414100824f5000ee
:1013a00004003a008002eb006033b800049cbe00e9
:1013b0000694be00081090000038a300140032000c
:1013c0003802be002803be00e00f5200e08f5a0032
:1013d000e00f5b00e08f5b000d00320080c7b300c0
:1013e00080cf50000300320080c5b30080cf500092
:1013f00007003a007800900002c3b30082717800c1
:101400000000e800817178000000e8007004980096
:101410007800900080814100630498003e0037000e
:1014200028619000c3c6b3009080e900834f51004b
:10143000220032000a003c00e4c15100834f5100f9
:101440002500320083c1e800834f510013003200b1
:10145000e8c15100834f51001e003a000a003700d6
:1014600043c7b300834f51001b003200e6c1410067
:10147000834f510018003200e9c15100834f5100e1
:1014800014003a00050037000108780011007800c8
:10149000485c900008487800410037000108780057
:1014a00011007800680a9000cfa2de00612bb9001d
:1014b0000498be000690be0039003700010878008d
:1014c0001100780068099000cf91de000288be000c
:1014d000330037009080e90001087800110078009f
:1014e000680c9000080878002d0037009080e90013
:1014f0000108780011027800cfa2de00612bb9004c
:10150000049cbe000694be007800900080814100db
:101510006304980081c7b300080078003400070016
:101520001f0037009080e90001087800110578005d
:101530006a049800d80c90000900e00004003d0007
:101540000a007800240007008004780007003700b4
:10155000090178008000eb000a0078001400070001
:101560000000e000010032008a045000190c9800cd
:101570000b0037007800900081717800060037007a
:1015800078009000808141000104e00001003a00f1
:1015900051c2b300814978000000e800700498004f
:1015a0000000eb004f0578004f04be00000006006d
:1015b00003003700b0cf1000050032000201e9003f
:1015c000800178000200e000faff3a000000050008
:1015d0000300780000000600800078000101780018
:1015e0003104e000fdff3a00000051000000060059
:1015f000fc874700889fbe008a9fbe008c9fbe006c
:101600008e1f78000006780080c5b30080cf5000a0
:101610000a0032007740400080cf50000a003200bc
:101620006940400080cf50000b003200308d200018
:1016300080bf9f00ae0020000a003700228c2000ef
:1016400082bf9f0006003700338d200083bf9f00bc
:101650008e00200003003700348d200084bf9f00df
:101660000e0120003c02be002c03be000605be0099
:101670000404be0040c6b30080cf50000300320017
:101680006540400080cf50000b003a00e00f520050
:10169000e08f5a00e00f5b00e08f5b0006003d002a
:1016a0006000b8006011b800040450008584580040
:1016b0000605590087855900e80f570004003200dd
:1016c00040002000f00f570038003a0001003700ba
:1016d00030002000e00f5400e08f5c00e00f5d0060
:1016e000e08f5d0004003a00dc0890008d012000ce
:1016f0000100e000060032008e00e90088806000f2
:101700008fba9700e5c07800f1ef9f007d012000bf
:10171000800078008100e900050033008b05d100ce
:101720000a85d3008984d3000884d300f9ff3700e9
:10173000089ebe000a96be00120037008d06e90022
:101740008e00e900848060000fb99700e2c1780044
:1017500082fd2f000f01410003f17e008000780020
:101760008100e900050033008783d1000683d300a0
:101770008582d3000482d300f9ff3700049ebe00a7
:101780000696be003c02be002c03be00e00f5200d5
:10179000e08f5a00e00f5b00e08f5b008b003400ad
:1017a0000d00e000e5ff3c00880037002c60900051
:1017b00081c6b300814f50000b00320006003c0090
:1017c0000004e00008003200e6c05000814f5000e5
:1017d0004e003a0004003700c1c6b300814f5000ec
:1017e0004a003a00210037000800e00004003a00f7
:1017f0005c0890008d0120000000e000060032002f
:10180000110009000e84d8000fb99700e2c07800db
:10181000f1ef9f007d012000110009000e84d80027
:101820000a003700110009000e04d8008d06e900f7
:101830000e81b900020454008fb8970061417c000a
:1018400081fd2f008f80400082f07e000004780030
:101850000800e000020032000d00e000f1ff3c0053
:10186000cfc4de00614db90025003700e00f540001
:10187000e08f5c0004003a005c0890008d012000bd
:101880000000e000070032006171b9000800be00ee
:10189000a50007008fb99700e3417800f3ef9f00a0
:1018a0007d0120006171b9000800be008e000700b4
:1018b0000b0037006171b9000800be007b00070013
:1018c0008d06e90000f1b900020454000fba970038
:1018d000e4427c0084fd2f000f02420005f27e00ee
:1018e0000004be00e00f5000e08f580002003200fc
:1018f0000d00e000efff3c004fcdde008a057800d0
:10190000089ebe000a96be0030003700e00f54006b
:10191000e08f5c00e00f5d00e08f5d0004003a00a6
:101920005c0890008d0120000000e00009003200fa
:101930006172b900612bb9000800be000a01be0047
:101940001c0107000fba970064427800f4ef9f0073
:101950007d0120006172b900612bb9000800be0052
:101960000a01be000c0107000d0037006172b900ca
:10197000612bb9000800be000a01be00110107007a
:101980008d06e90000f2b900040454008fba9700f4
:1019900065427c0085fd2f008f82420084f27e002c
:1019a000009ebe000296be003c04be002c05be0098
:1019b000e00f5400e08f5c00e00f5d00e08f5d0001
:1019c000020034000d00e000e8ff3c00e80f570083
:1019d00010003a000c1090000038a3000d003200f7
:1019e000f78f560006003e0085fd2f008f824200d3
:1019f000e5c07e0000c3b30080cf50000500320078
:101a00008d06e90002c3b30081fd2f008f804000e6
:101a100082f07e0078811600120e98006c00900013
:101a200083fd2f008f8141008d804100e3fc070082
:101a30001c089000dc089000810f500006003d005b
:101a400000805000000e98000c1090000040a10093
:101a5000001698000f0037000100e0000d003d0067
:101a60008c109000f4806000f08f500009003a0064
:101a70007c099000fc009000810051000c0990004e
:101a800082805000008050004240a90001003400d4
:101a9000000e98004f0778004f06be004f05be00ad
:101aa0004f04be00cf01b10000000600839f680014
:101ab0000100e00002003d0060001000e08018001e
:101ac0000300e00002003d0060011100e081190008
:101ad000050007004f00e00002003b00600010001e
:101ae000e0801800000006006022b8000602200016
:101af0000000d0008180d2000482d2008582d20012
:101b00000000a0000202520083825a00030031004c
:101b10000202420083824a000000a1000603e9009d
:101b2000f3ff3a0000000600efff07000400be00cc
:101b300000000600889fbe008a9fbe00300442005d
:101b4000b0844a0030054b0090854b006000b10026
:101b50000898be000a90be000440e10005c8e100fc
:101b600006d0e10007d8e100020031006800400023
:101b70001008e8004f05be004f04be00000006003c
:101b8000889fbe008a9fbe003004be002005be00b4
:101b90000418540005985c0006185d0007985d0065
:101ba000110020000440e10005c8e10006d0e1007a
:101bb00007d8e100010039008000eb001088100018
:101bc0004f05be004f04be00000006001200fa00e0
:101bd000889fbe008a9fbe008c9fbe00e0b79f001a
:101be000f1b79f0082bf9f0093bf9f000605be0014
:101bf0000404be000000eb00d0b79f00c0b79f00f8
:101c0000b0b79f00a0b79f0090b79f000006780074
:101c10005fb19700cfb09700820141003fb09700bd
:101c20000200e00004003d00370007007e805700fe
:101c3000c0ff070003003700330007007e80570015
:101c4000cfff0700dfb697000d00e0000c00350065
:101c50006fb29700ffb297000fbb97009fbb970032
:101c600010002000010020006011b8000002720086
:101c70008182720002037300838373001b000700dc
:101c80000c06e80001042000810f5600e0ff3a0036
:101c90000d00e00004003d000802be000a03be0083
:101ca0007e805700a3ff07005fa897000000e000b8
:101cb00005003a001fb29700afb297003fb39700fc
:101cc000cfb39700090007006fb09700ffb09700ef
:101cd0000fb997009fb997004f06be004f05be0091
:101ce0004f04be000080fa0000000600010007005b
:101cf00000000600a4b79f00b5b79f00c6b79f00bd
:101d0000d7b79f00000006004f09de0082817100f6
:101d1000b3b79f004f01de008180400082807000d9
:101d2000a1b79f008fb097004f09de000000400070
:101d30000200700090b79f007fa897004f01de005f
:101d4000818040008280700081b79f000d000700f5
:101d50004f3ade000000400004007000f0af9f002a
:101d6000080007000402420085824a0006034b0077
:101d700087834b00dfff07000802be000a03be0096
:101d8000000006002fb29700bfb297004fb3970034
:101d9000dfb3970000000600881f780018002000bd
:101da000881f780089ff07008f87e9004f047800bb
:101db00000000600801feb0084ff07008f87e9000a
:101dc00000000600889fbe008a9fbe00e00f500002
:101dd000e08f5800e00f5900e08f59000c003d00e3
:101de0006044b8006055b8000000540081805c0079
:101df00002015d0083815d001800200015000700ce
:101e000008003d00180007000004eb000500370043
:101e10000004eb000f00070002003d001200070065
:101e200018002000dcff07000800e0000600320078
:101e30006022b8006033b8000000520081805a0070
:101e400002015b0083815b004f05be004f04be00b2
:101e500000000600e00f5200e08f5a00e00f5b0028
:101e6000e08f5b00000006006044b8006055b800d9
:101e70000402540085825c0006035d0087835d00d8
:101e800000000600889fbe008a9fbe008c1f78005d
:101e9000e00f5000e08f5800e00f5900e08f59002c
:101ea0000d003d006044b8006055b80000005400cb
:101eb00081805c0002015d0083815d001c002000c8
:101ec0000820e10009a8e1000ab0e1000bb8e10038
:101ed0000d003d00080037000006eb00e00f520047
:101ee000e08f5a00e00f5b00e08f5b0006003d00d2
:101ef0006044b8006055b8000402540085825c005c
:101f000006035d0087835d00aaff07000c00e00068
:101f1000060032006022b8006033b80000005200b2
:101f200081805a0002015b0083815b004f067800cc
:0c1f30004f05be004f04be00000006007c
:020000040000fa
:101f3c005354000041520000540a000000410000bc
:101f4c00540d00000a000000415400002b52000008
:101f5c00535400000d0a000000410000542b0000f7
:101f6c00435700004d4f0000444500003d33000036
:101f7c000d0a000000410000542b000043490000f2
:101f8c0050530000544100003d2500006325000023
:101f9c0073250000632c000025630000313900001c
:101fac00322e000031360000382e0000312e000099
:101fbc0031250000632c0000256300003235000041
:101fcc00352e000032350000352e00003235000071
:101fdc00352e000030250000630d00000a000000c3
:101fec00415400002b4300004950000053540000a2
:101ffc0041520000543d0000256300005443000092
:10200c0050250000632c00002563000025730000a0
:10201c00256300002c380000303000000d0a000051
:10202c0000520000504d00003a20000025750000c1
:10203c000a0000004c650000796500006e64000029
:08204c006f0a00000000000013
:020000040000fa
:102054000000fa002000070015000700f1c3290062
:1020640020c0b3005c0007008080eb0030c0b300e8
:102074005900070042000700d7000700401f200056
:102084002501070099000700e0f928000f01070067
:10209400f0e12400000c8800401f20001e0107000e
:1020a400ca0107004089200008010700f8ff370033
:1020b4000000fa00c022ef00c902a800f0ff2000cf
:1020c40060198800c422a900c442a800c402a80060
:1020d4000080fa00000006000000fa006002200000
:1020e400303a8800213a8000f0f32f00008060002d
:1020f400203a8800213a800000fe2f000080600012
:10210400203a88004827ef0040a7a90012002000c9
:1021140080072000a1092000337420008049780042
:102124008149780082497800120020006004200070
:1021340071052000237420008049780081497800cb
:102144008249780000000000113a80000000270056
:102154008080600000002100808f5000faff3a0068
:1021640000000000113a800000022000008060009e
:102174000000e000fbff32000080fa0000000600cf
:102184000000fa00210c800080ff2f000080600016
:10219400200c88008221ef00f0e12400000c88006c
:1021a4008461a9008221ef00210c800080ff2f00b0
:1021b400008060006000b300200c8800313680008d
:1021c40000fe2f00008060002001b300303688003c
:1021d4000080fa00000006000400fa00004f7800b6
:1021e400110798001e80fb00e20f50001900320016
:1021f400e30f500029003200e10f500039003a008b
:1022040005e1a9000421a90005a1a9002108800075
:10221400f0fc2f00008060002008880004c1a900a1
:102224000441a9000021ef009e00900011088800dd
:102234008460a90021058000f0ff280080806000f0
:102244000000260001007000200588009460a800aa
:1022540005e1a80011e1a9001021a90011a1a9001c
:1022640081088000f0fc2f00008060008008880056
:1022740010c1a9000621ef009e00900061088800ab
:1022840084e0a900310580000000270001007000ef
:102294003005880094e0a80011e1a80013e1a9002a
:1022a4001221a90013a1a90091088000f0fc2f00bd
:1022b400008060000040a0009008880012c1a900be
:1022c4000a21ef009e009000710888008500a90093
:1022d400400580007000b300400588009500a80008
:1022e40005e1a8000080fa00000006000000fa00e2
:1022f400110a800080ff2f0000806000100a88000f
:102304007134800000fe2f00008060005000b30094
:102314007034880042e1a800110a8000f0f92f000f
:10232400008060000050a000100a8800110a80009c
:1023340080ff2f00008060003000b300100a880086
:1023440021058000f0f82f00008060000060a000ec
:10235400200588008420a9009420a8000080fa00a9
:10236400000006000000fa00310a800080ff2f0000
:1023740000806000300a880071348000f00f2e0065
:10238400008060000080a0007034880046e1a8004e
:10239400310a8000f0f92f0000806000300a8800c4
:1023a400310a800080ff2f00008060003000b300fd
:1023b400300a880031058000f0f82f0000806000aa
:1023c4000060a0003005880084a0a90094a0a800a3
:1023d4000080fa00000006000000fa002002a900b4
:1023e4000111800090ff2f00008060000011880020
:1023f40020a2a9002062a900400120004011880009
:1024040023a2a90023e2a90011118000f0f32f00f8
:1024140000806000101188009580a9008580a900c3
:102424005105800080ff2f00008060000020a00084
:10243400500588009560a8008560a90041058000ca
:10244400f0ff28008080600000002500010070007b
:10245400400588002135800000fe2f0000806000c8
:102464000030a0002035880041368000f00f2e0097
:102474008080600000302000010070004036880039
:1024840021e2a8002342a80069100900000000000e
:102494000080fa00000006000200fa00004f7800f5
:1024a4001e00fb0020118800000000000000000056
:1024b4001111800000102000008060000000e00086
:1024c400fbff32000080fa00000006000400fa005e
:1024d400100798000040eb00004f7800060037001a
:1024e4001e80fb009e009000008040001040780099
:1024f400e9ff07001e4fe8001e80fb009e009000cd
:1025040000804000104078000004e000f4ff3a002e
:102514000080fa00000006000400fa00100798008a
:102524000000eb00000f780003003700a00f090043
:10253400000000001e0fe8001e0090006a00b900b1
:10254400000078009e0f5000f8ff3e000080fa0063
:10255400000006006000fa0050fa2800dbff0700c4
:10256400803e2000ecff0700a0fa2800d7ff0700f8
:10257400007d2000e8ff070030fb2800d3ff0700a0
:10258400007d2000e4ff070020022000801f780067
:1025940020022000801f780020022000801f780085
:1025a40020022000801f780020022000801f780075
:1025b400408e2000801f780020022000801f7800b9
:1025c40010fc2800801f78000e00780039f90700fd
:1025d400f08757000e007800bcff0700007d200044
:1025e400cdff0700700320000e00400021022000f0
:1025f400811f7800218f2000811f78002102200094
:10260400811f780021022000811f78002102200010
:10261400811f780061ff2800811f780025f90700d9
:10262400ec875700700320000e004000a7ff07004e
:10263400007d2000b8ff07000080fa0000000600bb
:102644002e00fa00881f78000000eb003007980085
:102654000000eb00400798000000eb00000f78003a
:102664006000b80050079800610798006000b80047
:1026740070079800010f98006000b800100f9800d0
:10268400210f98001e019000ae019000320f9800b7
:10269400430f9800030a800033079800010a800062
:1026a40041079800ce0090003e009000808f5000bb
:1026b40004003600ce0090003e009000008f5000d1
:1026c40005003700610880003e00900080805000c3
:1026d4004e009000008f40001e0078008000eb0048
:1026e4001af8070012d92c00b322230057f8070068
:1026f40002002000a347240054f807007007980044
:10270400010f980002002000031424007e009000b2
:102714008e0890004df80700500798006107980054
:102724005e019000ee0190000000200001f82300fb
:10273400c2f70700100f9800210f98000200200034
:10274400032724001e089000ae0890003ff80700fd
:10275400100798002107980018c0b3000200200059
:10276400832c24001e009000ae009000f5f70700b3
:102774000000e00001003c000044eb000804e0001d
:10278400040032003e099000ce0990001207980020
:10279400230798007a004700ce019000831f780039
:1027a40071012900811f7800c2f80700e4875700ef
:1027b4007a00470045ff07001e009000ae0090001d
:1027c4004f0478000080fa00000006000400fa00bc
:1027d400000229003dff070010c0b3001047980015
:1027e4000040eb002047980000000000101180001a
:1027f400610060000000e000fcff32003011800046
:1028040030479800be40900040892000014878007d
:10281400be409000b0c2b30080cf500015003a0013
:10282400be409000408920000148780010c0b300e9
:10283400004f78000b0037000000000010118000ea
:10284400610060000000e000fcff32001e80fb001d
:1028540031118000014178004189200082707800a4
:102864001e4fe8001e407800e94f5000f2ff36008a
:10287400120037000040eb00004f780009003700d9
:1028840030118000304798002222a9003e40900079
:102894000004e000080032003e409000fefe070005
:1028a4001e4fe80040c6b3009e40780080cf500021
:1028b400f3ff3600010037000000000040892000cb
:0c28c40002ff07000080fa000000060080
:020000040000fa
:1028d000e40800001c000000020000003139320052
:1028e0002e313600382e31002e31360030003100c6
:1028f00039322e00313638002e312e0031330000af
:10290000000000003a0800008800000000000000fd
:102910000008000038000000000000003808000037
:102920000200000002000000840300000009000013
:102930001a00000002000000686a6c00747a4c0003
:102940000000010000020000040008000010000068
:10295000000020002b2d230030000000c2080000e2
:102960002200000002000000303132003334350014
:1029700036373800394142004344450046003000b4
:102980003132330034353600373839006162630044
:0c2990006465660000000000000000000c
:020000040000fa
:0200000401f009
:04000000ffff0000fe
:020000040000fa
:0200000401f009
:04000400ffff0000fa
:020000040000fa
:0200000401f009
:04000800ffff0000f6
:020000040000fa
:0200000401f009
:04000c00810000006f
:020000040000fa
:0200000401f009
:04001000a300000049
:020000040000fa
:0200000401f009
:04001800f0000000f4
:020000040000fa
:0200000401f009
:04001c00deff000003
:00000001FF
